{
  "_format": "hh-sol-artifact-1",
  "contractName": "EventTicketing",
  "sourceName": "contracts/EventTicketing.sol",
  "abi": [
    {
      "inputs": [],
      "stateMutability": "nonpayable",
      "type": "constructor"
    },
    {
      "anonymous": false,
      "inputs": [
        {
          "indexed": true,
          "internalType": "uint256",
          "name": "eventId",
          "type": "uint256"
        },
        {
          "indexed": false,
          "internalType": "string",
          "name": "name",
          "type": "string"
        },
        {
          "indexed": false,
          "internalType": "uint256",
          "name": "price",
          "type": "uint256"
        },
        {
          "indexed": false,
          "internalType": "uint256",
          "name": "totalSupply",
          "type": "uint256"
        },
        {
          "indexed": false,
          "internalType": "address",
          "name": "organizer",
          "type": "address"
        }
      ],
      "name": "EventCreated",
      "type": "event"
    },
    {
      "anonymous": false,
      "inputs": [
        {
          "indexed": true,
          "internalType": "uint256",
          "name": "eventId",
          "type": "uint256"
        },
        {
          "indexed": true,
          "internalType": "uint256",
          "name": "ticketId",
          "type": "uint256"
        },
        {
          "indexed": false,
          "internalType": "address",
          "name": "buyer",
          "type": "address"
        },
        {
          "indexed": false,
          "internalType": "uint256",
          "name": "price",
          "type": "uint256"
        }
      ],
      "name": "TicketPurchased",
      "type": "event"
    },
    {
      "anonymous": false,
      "inputs": [
        {
          "indexed": true,
          "internalType": "uint256",
          "name": "ticketId",
          "type": "uint256"
        },
        {
          "indexed": true,
          "internalType": "address",
          "name": "from",
          "type": "address"
        },
        {
          "indexed": true,
          "internalType": "address",
          "name": "to",
          "type": "address"
        }
      ],
      "name": "TicketTransferred",
      "type": "event"
    },
    {
      "anonymous": false,
      "inputs": [
        {
          "indexed": true,
          "internalType": "uint256",
          "name": "ticketId",
          "type": "uint256"
        },
        {
          "indexed": true,
          "internalType": "uint256",
          "name": "eventId",
          "type": "uint256"
        },
        {
          "indexed": false,
          "internalType": "address",
          "name": "owner",
          "type": "address"
        }
      ],
      "name": "TicketUsed",
      "type": "event"
    },
    {
      "inputs": [
        {
          "internalType": "string",
          "name": "name",
          "type": "string"
        },
        {
          "internalType": "string",
          "name": "description",
          "type": "string"
        },
        {
          "internalType": "uint256",
          "name": "price",
          "type": "uint256"
        },
        {
          "internalType": "uint256",
          "name": "totalSupply",
          "type": "uint256"
        },
        {
          "internalType": "uint256",
          "name": "eventDate",
          "type": "uint256"
        }
      ],
      "name": "createEvent",
      "outputs": [
        {
          "internalType": "uint256",
          "name": "",
          "type": "uint256"
        }
      ],
      "stateMutability": "nonpayable",
      "type": "function"
    },
    {
      "inputs": [
        {
          "internalType": "uint256",
          "name": "",
          "type": "uint256"
        }
      ],
      "name": "events",
      "outputs": [
        {
          "internalType": "string",
          "name": "name",
          "type": "string"
        },
        {
          "internalType": "string",
          "name": "description",
          "type": "string"
        },
        {
          "internalType": "uint256",
          "name": "price",
          "type": "uint256"
        },
        {
          "internalType": "uint256",
          "name": "totalSupply",
          "type": "uint256"
        },
        {
          "internalType": "uint256",
          "name": "availableTickets",
          "type": "uint256"
        },
        {
          "internalType": "uint256",
          "name": "eventDate",
          "type": "uint256"
        },
        {
          "internalType": "bool",
          "name": "isActive",
          "type": "bool"
        },
        {
          "internalType": "address",
          "name": "organizer",
          "type": "address"
        }
      ],
      "stateMutability": "view",
      "type": "function"
    },
    {
      "inputs": [
        {
          "internalType": "uint256",
          "name": "eventId",
          "type": "uint256"
        }
      ],
      "name": "getEvent",
      "outputs": [
        {
          "components": [
            {
              "internalType": "string",
              "name": "name",
              "type": "string"
            },
            {
              "internalType": "string",
              "name": "description",
              "type": "string"
            },
            {
              "internalType": "uint256",
              "name": "price",
              "type": "uint256"
            },
            {
              "internalType": "uint256",
              "name": "totalSupply",
              "type": "uint256"
            },
            {
              "internalType": "uint256",
              "name": "availableTickets",
              "type": "uint256"
            },
            {
              "internalType": "uint256",
              "name": "eventDate",
              "type": "uint256"
            },
            {
              "internalType": "bool",
              "name": "isActive",
              "type": "bool"
            },
            {
              "internalType": "address",
              "name": "organizer",
              "type": "address"
            }
          ],
          "internalType": "struct EventTicketing.Event",
          "name": "",
          "type": "tuple"
        }
      ],
      "stateMutability": "view",
      "type": "function"
    },
    {
      "inputs": [],
      "name": "getEventCount",
      "outputs": [
        {
          "internalType": "uint256",
          "name": "",
          "type": "uint256"
        }
      ],
      "stateMutability": "view",
      "type": "function"
    },
    {
      "inputs": [
        {
          "internalType": "uint256",
          "name": "eventId",
          "type": "uint256"
        }
      ],
      "name": "getMyTickets",
      "outputs": [
        {
          "internalType": "uint256[]",
          "name": "",
          "type": "uint256[]"
        }
      ],
      "stateMutability": "view",
      "type": "function"
    },
    {
      "inputs": [
        {
          "internalType": "uint256",
          "name": "ticketId",
          "type": "uint256"
        }
      ],
      "name": "getTicket",
      "outputs": [
        {
          "components": [
            {
              "internalType": "uint256",
              "name": "eventId",
              "type": "uint256"
            },
            {
              "internalType": "address",
              "name": "owner",
              "type": "address"
            },
            {
              "internalType": "bool",
              "name": "isUsed",
              "type": "bool"
            },
            {
              "internalType": "uint256",
              "name": "purchaseDate",
              "type": "uint256"
            }
          ],
          "internalType": "struct EventTicketing.Ticket",
          "name": "",
          "type": "tuple"
        }
      ],
      "stateMutability": "view",
      "type": "function"
    },
    {
      "inputs": [],
      "name": "owner",
      "outputs": [
        {
          "internalType": "address",
          "name": "",
          "type": "address"
        }
      ],
      "stateMutability": "view",
      "type": "function"
    },
    {
      "inputs": [
        {
          "internalType": "uint256",
          "name": "eventId",
          "type": "uint256"
        }
      ],
      "name": "purchaseTicket",
      "outputs": [
        {
          "internalType": "uint256",
          "name": "",
          "type": "uint256"
        }
      ],
      "stateMutability": "payable",
      "type": "function"
    },
    {
      "inputs": [
        {
          "internalType": "uint256",
          "name": "",
          "type": "uint256"
        }
      ],
      "name": "tickets",
      "outputs": [
        {
          "internalType": "uint256",
          "name": "eventId",
          "type": "uint256"
        },
        {
          "internalType": "address",
          "name": "owner",
          "type": "address"
        },
        {
          "internalType": "bool",
          "name": "isUsed",
          "type": "bool"
        },
        {
          "internalType": "uint256",
          "name": "purchaseDate",
          "type": "uint256"
        }
      ],
      "stateMutability": "view",
      "type": "function"
    },
    {
      "inputs": [
        {
          "internalType": "uint256",
          "name": "ticketId",
          "type": "uint256"
        },
        {
          "internalType": "address",
          "name": "to",
          "type": "address"
        }
      ],
      "name": "transferTicket",
      "outputs": [],
      "stateMutability": "nonpayable",
      "type": "function"
    },
    {
      "inputs": [
        {
          "internalType": "uint256",
          "name": "ticketId",
          "type": "uint256"
        }
      ],
      "name": "useTicket",
      "outputs": [],
      "stateMutability": "nonpayable",
      "type": "function"
    },
    {
      "inputs": [
        {
          "internalType": "uint256",
          "name": "ticketId",
          "type": "uint256"
        }
      ],
      "name": "validateTicket",
      "outputs": [
        {
          "internalType": "bool",
          "name": "",
          "type": "bool"
        },
        {
          "internalType": "string",
          "name": "",
          "type": "string"
        }
      ],
      "stateMutability": "view",
      "type": "function"
    }
  ],
  "bytecode": "0x608060405234801561001057600080fd5b50336000806101000a81548173ffffffffffffffffffffffffffffffffffffffff021916908373ffffffffffffffffffffffffffffffffffffffff160217905550612eee806100606000396000f3fe6080604052600436106100a75760003560e01c80636d1884e0116100645780636d1884e0146101fd5780637dc379fa1461023a5780638da5cb5b14610277578063b948348c146102a2578063c81d9217146102d2578063d9e48f5c1461030f576100a7565b8063054ae7df146100ac5780630b791430146100ea578063266064481461012e5780633c2fc56c1461015757806350b4471214610194578063679ebf1a146101d4575b600080fd5b3480156100b857600080fd5b506100d360048036038101906100ce9190611d31565b61033a565b6040516100e1929190611e09565b60405180910390f35b3480156100f657600080fd5b50610111600480360381019061010c9190611d31565b6107b1565b604051610125989796959493929190611e89565b60405180910390f35b34801561013a57600080fd5b5061015560048036038101906101509190611d31565b610936565b005b34801561016357600080fd5b5061017e6004803603810190610179919061204a565b610c02565b60405161018b91906120fd565b60405180910390f35b3480156101a057600080fd5b506101bb60048036038101906101b69190611d31565b610e17565b6040516101cb9493929190612118565b60405180910390f35b3480156101e057600080fd5b506101fb60048036038101906101f69190612189565b610e74565b005b34801561020957600080fd5b50610224600480360381019061021f9190611d31565b6112e0565b60405161023191906122f7565b60405180910390f35b34801561024657600080fd5b50610261600480360381019061025c9190611d31565b61152e565b60405161026e919061236e565b60405180910390f35b34801561028357600080fd5b5061028c611685565b6040516102999190612389565b60405180910390f35b6102bc60048036038101906102b79190611d31565b6116a9565b6040516102c991906120fd565b60405180910390f35b3480156102de57600080fd5b506102f960048036038101906102f49190611d31565b611b98565b6040516103069190612453565b60405180910390f35b34801561031b57600080fd5b50610324611c40565b60405161033191906120fd565b60405180910390f35b60006060600073ffffffffffffffffffffffffffffffffffffffff166004600085815260200190815260200160002060010160009054906101000a900473ffffffffffffffffffffffffffffffffffffffff1673ffffffffffffffffffffffffffffffffffffffff16036103e95760006040518060400160405280601581526020017f5469636b657420646f6573206e6f742065786973740000000000000000000000815250915091506107ac565b600060046000858152602001908152602001600020604051806080016040529081600082015481526020016001820160009054906101000a900473ffffffffffffffffffffffffffffffffffffffff1673ffffffffffffffffffffffffffffffffffffffff1673ffffffffffffffffffffffffffffffffffffffff1681526020016001820160149054906101000a900460ff16151515158152602001600282015481525050905060006003600083600001518152602001908152602001600020604051806101000160405290816000820180546104c5906124a4565b80601f01602080910402602001604051908101604052809291908181526020018280546104f1906124a4565b801561053e5780601f106105135761010080835404028352916020019161053e565b820191906000526020600020905b81548152906001019060200180831161052157829003601f168201915b50505050508152602001600182018054610557906124a4565b80601f0160208091040260200160405190810160405280929190818152602001828054610583906124a4565b80156105d05780601f106105a5576101008083540402835291602001916105d0565b820191906000526020600020905b8154815290600101906020018083116105b357829003601f168201915b50505050508152602001600282015481526020016003820154815260200160048201548152602001600582015481526020016006820160009054906101000a900460ff161515151581526020016006820160019054906101000a900473ffffffffffffffffffffffffffffffffffffffff1673ffffffffffffffffffffffffffffffffffffffff1673ffffffffffffffffffffffffffffffffffffffff168152505090508160400151156106c15760006040518060400160405280601c81526020017f5469636b65742068617320616c7265616479206265656e2075736564000000008152509350935050506107ac565b8060a001514210156107105760006040518060400160405280601981526020017f4576656e7420686173206e6f74207374617274656420796574000000000000008152509350935050506107ac565b620151808160a001516107239190612504565b42111561076d5760006040518060400160405280601181526020017f4576656e742068617320657870697265640000000000000000000000000000008152509350935050506107ac565b60016040518060400160405280600f81526020017f5469636b65742069732076616c696400000000000000000000000000000000008152509350935050505b915091565b60036020528060005260406000206000915090508060000180546107d4906124a4565b80601f0160208091040260200160405190810160405280929190818152602001828054610800906124a4565b801561084d5780601f106108225761010080835404028352916020019161084d565b820191906000526020600020905b81548152906001019060200180831161083057829003601f168201915b505050505090806001018054610862906124a4565b80601f016020809104026020016040519081016040528092919081815260200182805461088e906124a4565b80156108db5780601f106108b0576101008083540402835291602001916108db565b820191906000526020600020905b8154815290600101906020018083116108be57829003601f168201915b5050505050908060020154908060030154908060040154908060050154908060060160009054906101000a900460ff16908060060160019054906101000a900473ffffffffffffffffffffffffffffffffffffffff16905088565b80600073ffffffffffffffffffffffffffffffffffffffff166004600083815260200190815260200160002060010160009054906101000a900473ffffffffffffffffffffffffffffffffffffffff1673ffffffffffffffffffffffffffffffffffffffff16036109dc576040517f08c379a00000000000000000000000000000000000000000000000000000000081526004016109d390612584565b60405180910390fd5b813373ffffffffffffffffffffffffffffffffffffffff166004600083815260200190815260200160002060010160009054906101000a900473ffffffffffffffffffffffffffffffffffffffff1673ffffffffffffffffffffffffffffffffffffffff1614610a81576040517f08c379a0000000000000000000000000000000000000000000000000000000008152600401610a78906125f0565b60405180910390fd5b60006004600085815260200190815260200160002090506000600360008360000154815260200190815260200160002090508160010160149054906101000a900460ff1615610b05576040517f08c379a0000000000000000000000000000000000000000000000000000000008152600401610afc9061265c565b60405180910390fd5b8060050154421015610b4c576040517f08c379a0000000000000000000000000000000000000000000000000000000008152600401610b43906126c8565b60405180910390fd5b620151808160050154610b5f9190612504565b421115610ba1576040517f08c379a0000000000000000000000000000000000000000000000000000000008152600401610b9890612734565b60405180910390fd5b60018260010160146101000a81548160ff0219169083151502179055508160000154857fb35ebdfb9515b145e406c5c5a0846ec436db0b9560927af3af7a754d90c4f6ff33604051610bf39190612389565b60405180910390a35050505050565b6000428211610c46576040517f08c379a0000000000000000000000000000000000000000000000000000000008152600401610c3d906127a0565b60405180910390fd5b60008311610c89576040517f08c379a0000000000000000000000000000000000000000000000000000000008152600401610c809061280c565b60405180910390fd5b60016000815480929190610c9c9061282c565b9190505550600060015490506040518061010001604052808881526020018781526020018681526020018581526020018581526020018481526020016001151581526020013373ffffffffffffffffffffffffffffffffffffffff16815250600360008381526020019081526020016000206000820151816000019081610d239190612a20565b506020820151816001019081610d399190612a20565b5060408201518160020155606082015181600301556080820151816004015560a0820151816005015560c08201518160060160006101000a81548160ff02191690831515021790555060e08201518160060160016101000a81548173ffffffffffffffffffffffffffffffffffffffff021916908373ffffffffffffffffffffffffffffffffffffffff160217905550905050807f818cdd1d6860d493731be2106680d34811f56c9ed9d66dbf56a7c2dcc59c9be588878733604051610e029493929190612af2565b60405180910390a28091505095945050505050565b60046020528060005260406000206000915090508060000154908060010160009054906101000a900473ffffffffffffffffffffffffffffffffffffffff16908060010160149054906101000a900460ff16908060020154905084565b81600073ffffffffffffffffffffffffffffffffffffffff166004600083815260200190815260200160002060010160009054906101000a900473ffffffffffffffffffffffffffffffffffffffff1673ffffffffffffffffffffffffffffffffffffffff1603610f1a576040517f08c379a0000000000000000000000000000000000000000000000000000000008152600401610f1190612584565b60405180910390fd5b823373ffffffffffffffffffffffffffffffffffffffff166004600083815260200190815260200160002060010160009054906101000a900473ffffffffffffffffffffffffffffffffffffffff1673ffffffffffffffffffffffffffffffffffffffff1614610fbf576040517f08c379a0000000000000000000000000000000000000000000000000000000008152600401610fb6906125f0565b60405180910390fd5b600073ffffffffffffffffffffffffffffffffffffffff168373ffffffffffffffffffffffffffffffffffffffff160361102e576040517f08c379a000000000000000000000000000000000000000000000000000000000815260040161102590612b8a565b60405180910390fd5b3373ffffffffffffffffffffffffffffffffffffffff168373ffffffffffffffffffffffffffffffffffffffff160361109c576040517f08c379a000000000000000000000000000000000000000000000000000000000815260040161109390612bf6565b60405180910390fd5b60006004600086815260200190815260200160002090508060010160149054906101000a900460ff1615611105576040517f08c379a00000000000000000000000000000000000000000000000000000000081526004016110fc9061265c565b60405180910390fd5b6003600082600001548152602001908152602001600020600501544210611161576040517f08c379a000000000000000000000000000000000000000000000000000000000815260040161115890612c62565b60405180910390fd5b6000600660008360000154815260200190815260200160002060003373ffffffffffffffffffffffffffffffffffffffff1673ffffffffffffffffffffffffffffffffffffffff16815260200190815260200160002060006101000a81548160ff021916908315150217905550838160010160006101000a81548173ffffffffffffffffffffffffffffffffffffffff021916908373ffffffffffffffffffffffffffffffffffffffff1602179055506001600660008360000154815260200190815260200160002060008673ffffffffffffffffffffffffffffffffffffffff1673ffffffffffffffffffffffffffffffffffffffff16815260200190815260200160002060006101000a81548160ff0219169083151502179055508373ffffffffffffffffffffffffffffffffffffffff163373ffffffffffffffffffffffffffffffffffffffff16867fd15524263ae66f75c1e604c47db6085085110f23ef7322b355179ac5e3b0783a60405160405180910390a45050505050565b6112e8611c4a565b6003600083815260200190815260200160002060060160009054906101000a900460ff1661134b576040517f08c379a000000000000000000000000000000000000000000000000000000000815260040161134290612cce565b60405180910390fd5b600360008381526020019081526020016000206040518061010001604052908160008201805461137a906124a4565b80601f01602080910402602001604051908101604052809291908181526020018280546113a6906124a4565b80156113f35780601f106113c8576101008083540402835291602001916113f3565b820191906000526020600020905b8154815290600101906020018083116113d657829003601f168201915b5050505050815260200160018201805461140c906124a4565b80601f0160208091040260200160405190810160405280929190818152602001828054611438906124a4565b80156114855780601f1061145a57610100808354040283529160200191611485565b820191906000526020600020905b81548152906001019060200180831161146857829003601f168201915b50505050508152602001600282015481526020016003820154815260200160048201548152602001600582015481526020016006820160009054906101000a900460ff161515151581526020016006820160019054906101000a900473ffffffffffffffffffffffffffffffffffffffff1673ffffffffffffffffffffffffffffffffffffffff1673ffffffffffffffffffffffffffffffffffffffff16815250509050919050565b611536611ca7565b600073ffffffffffffffffffffffffffffffffffffffff166004600084815260200190815260200160002060010160009054906101000a900473ffffffffffffffffffffffffffffffffffffffff1673ffffffffffffffffffffffffffffffffffffffff16036115db576040517f08c379a00000000000000000000000000000000000000000000000000000000081526004016115d290612584565b60405180910390fd5b60046000838152602001908152602001600020604051806080016040529081600082015481526020016001820160009054906101000a900473ffffffffffffffffffffffffffffffffffffffff1673ffffffffffffffffffffffffffffffffffffffff1673ffffffffffffffffffffffffffffffffffffffff1681526020016001820160149054906101000a900460ff161515151581526020016002820154815250509050919050565b60008054906101000a900473ffffffffffffffffffffffffffffffffffffffff1681565b6000816003600082815260200190815260200160002060060160009054906101000a900460ff1661170f576040517f08c379a000000000000000000000000000000000000000000000000000000000815260040161170690612cce565b60405180910390fd5b6000600360008581526020019081526020016000209050600081600401541161176d576040517f08c379a000000000000000000000000000000000000000000000000000000000815260040161176490612d3a565b60405180910390fd5b80600201543410156117b4576040517f08c379a00000000000000000000000000000000000000000000000000000000081526004016117ab90612da6565b60405180910390fd5b428160050154116117fa576040517f08c379a00000000000000000000000000000000000000000000000000000000081526004016117f190612c62565b60405180910390fd5b6006600085815260200190815260200160002060003373ffffffffffffffffffffffffffffffffffffffff1673ffffffffffffffffffffffffffffffffffffffff16815260200190815260200160002060009054906101000a900460ff1615611898576040517f08c379a000000000000000000000000000000000000000000000000000000000815260040161188f90612e12565b60405180910390fd5b600260008154809291906118ab9061282c565b91905055506000600254905060405180608001604052808681526020013373ffffffffffffffffffffffffffffffffffffffff16815260200160001515815260200142815250600460008381526020019081526020016000206000820151816000015560208201518160010160006101000a81548173ffffffffffffffffffffffffffffffffffffffff021916908373ffffffffffffffffffffffffffffffffffffffff16021790555060408201518160010160146101000a81548160ff02191690831515021790555060608201518160020155905050600560003373ffffffffffffffffffffffffffffffffffffffff1673ffffffffffffffffffffffffffffffffffffffff168152602001908152602001600020600086815260200190815260200160002081908060018154018082558091505060019003906000526020600020016000909190919091505560016006600087815260200190815260200160002060003373ffffffffffffffffffffffffffffffffffffffff1673ffffffffffffffffffffffffffffffffffffffff16815260200190815260200160002060006101000a81548160ff021916908315150217905550816004016000815480929190611a7790612e32565b91905055508160020154341115611adf573373ffffffffffffffffffffffffffffffffffffffff166108fc836002015434611ab29190612e5b565b9081150290604051600060405180830381858888f19350505050158015611add573d6000803e3d6000fd5b505b8160060160019054906101000a900473ffffffffffffffffffffffffffffffffffffffff1673ffffffffffffffffffffffffffffffffffffffff166108fc83600201549081150290604051600060405180830381858888f19350505050158015611b4d573d6000803e3d6000fd5b5080857fc3b7539e996dc1d1252af1e3c72474162b7a9c7cc7411ca8905732eaf6fff328338560020154604051611b85929190612e8f565b60405180910390a3809350505050919050565b6060600560003373ffffffffffffffffffffffffffffffffffffffff1673ffffffffffffffffffffffffffffffffffffffff1681526020019081526020016000206000838152602001908152602001600020805480602002602001604051908101604052809291908181526020018280548015611c3457602002820191906000526020600020905b815481526020019060010190808311611c20575b50505050509050919050565b6000600154905090565b604051806101000160405280606081526020016060815260200160008152602001600081526020016000815260200160008152602001600015158152602001600073ffffffffffffffffffffffffffffffffffffffff1681525090565b604051806080016040528060008152602001600073ffffffffffffffffffffffffffffffffffffffff168152602001600015158152602001600081525090565b6000604051905090565b600080fd5b600080fd5b6000819050919050565b611d0e81611cfb565b8114611d1957600080fd5b50565b600081359050611d2b81611d05565b92915050565b600060208284031215611d4757611d46611cf1565b5b6000611d5584828501611d1c565b91505092915050565b60008115159050919050565b611d7381611d5e565b82525050565b600081519050919050565b600082825260208201905092915050565b60005b83811015611db3578082015181840152602081019050611d98565b60008484015250505050565b6000601f19601f8301169050919050565b6000611ddb82611d79565b611de58185611d84565b9350611df5818560208601611d95565b611dfe81611dbf565b840191505092915050565b6000604082019050611e1e6000830185611d6a565b8181036020830152611e308184611dd0565b90509392505050565b611e4281611cfb565b82525050565b600073ffffffffffffffffffffffffffffffffffffffff82169050919050565b6000611e7382611e48565b9050919050565b611e8381611e68565b82525050565b6000610100820190508181036000830152611ea4818b611dd0565b90508181036020830152611eb8818a611dd0565b9050611ec76040830189611e39565b611ed46060830188611e39565b611ee16080830187611e39565b611eee60a0830186611e39565b611efb60c0830185611d6a565b611f0860e0830184611e7a565b9998505050505050505050565b600080fd5b600080fd5b7f4e487b7100000000000000000000000000000000000000000000000000000000600052604160045260246000fd5b611f5782611dbf565b810181811067ffffffffffffffff82111715611f7657611f75611f1f565b5b80604052505050565b6000611f89611ce7565b9050611f958282611f4e565b919050565b600067ffffffffffffffff821115611fb557611fb4611f1f565b5b611fbe82611dbf565b9050602081019050919050565b82818337600083830152505050565b6000611fed611fe884611f9a565b611f7f565b90508281526020810184848401111561200957612008611f1a565b5b612014848285611fcb565b509392505050565b600082601f83011261203157612030611f15565b5b8135612041848260208601611fda565b91505092915050565b600080600080600060a0868803121561206657612065611cf1565b5b600086013567ffffffffffffffff81111561208457612083611cf6565b5b6120908882890161201c565b955050602086013567ffffffffffffffff8111156120b1576120b0611cf6565b5b6120bd8882890161201c565b94505060406120ce88828901611d1c565b93505060606120df88828901611d1c565b92505060806120f088828901611d1c565b9150509295509295909350565b60006020820190506121126000830184611e39565b92915050565b600060808201905061212d6000830187611e39565b61213a6020830186611e7a565b6121476040830185611d6a565b6121546060830184611e39565b95945050505050565b61216681611e68565b811461217157600080fd5b50565b6000813590506121838161215d565b92915050565b600080604083850312156121a05761219f611cf1565b5b60006121ae85828601611d1c565b92505060206121bf85828601612174565b9150509250929050565b600082825260208201905092915050565b60006121e582611d79565b6121ef81856121c9565b93506121ff818560208601611d95565b61220881611dbf565b840191505092915050565b61221c81611cfb565b82525050565b61222b81611d5e565b82525050565b61223a81611e68565b82525050565b600061010083016000830151848203600086015261225e82826121da565b9150506020830151848203602086015261227882826121da565b915050604083015161228d6040860182612213565b5060608301516122a06060860182612213565b5060808301516122b36080860182612213565b5060a08301516122c660a0860182612213565b5060c08301516122d960c0860182612222565b5060e08301516122ec60e0860182612231565b508091505092915050565b600060208201905081810360008301526123118184612240565b905092915050565b60808201600082015161232f6000850182612213565b5060208201516123426020850182612231565b5060408201516123556040850182612222565b5060608201516123686060850182612213565b50505050565b60006080820190506123836000830184612319565b92915050565b600060208201905061239e6000830184611e7a565b92915050565b600081519050919050565b600082825260208201905092915050565b6000819050602082019050919050565b60006123dc8383612213565b60208301905092915050565b6000602082019050919050565b6000612400826123a4565b61240a81856123af565b9350612415836123c0565b8060005b8381101561244657815161242d88826123d0565b9750612438836123e8565b925050600181019050612419565b5085935050505092915050565b6000602082019050818103600083015261246d81846123f5565b905092915050565b7f4e487b7100000000000000000000000000000000000000000000000000000000600052602260045260246000fd5b600060028204905060018216806124bc57607f821691505b6020821081036124cf576124ce612475565b5b50919050565b7f4e487b7100000000000000000000000000000000000000000000000000000000600052601160045260246000fd5b600061250f82611cfb565b915061251a83611cfb565b9250828201905080821115612532576125316124d5565b5b92915050565b7f5469636b657420646f6573206e6f742065786973740000000000000000000000600082015250565b600061256e601583611d84565b915061257982612538565b602082019050919050565b6000602082019050818103600083015261259d81612561565b9050919050565b7f4e6f74207469636b6574206f776e657200000000000000000000000000000000600082015250565b60006125da601083611d84565b91506125e5826125a4565b602082019050919050565b60006020820190508181036000830152612609816125cd565b9050919050565b7f5469636b657420616c7265616479207573656400000000000000000000000000600082015250565b6000612646601383611d84565b915061265182612610565b602082019050919050565b6000602082019050818103600083015261267581612639565b9050919050565b7f4576656e7420686173206e6f7420737461727465640000000000000000000000600082015250565b60006126b2601583611d84565b91506126bd8261267c565b602082019050919050565b600060208201905081810360008301526126e1816126a5565b9050919050565b7f4576656e74206861732065787069726564000000000000000000000000000000600082015250565b600061271e601183611d84565b9150612729826126e8565b602082019050919050565b6000602082019050818103600083015261274d81612711565b9050919050565b7f4576656e742064617465206d75737420626520696e2066757475726500000000600082015250565b600061278a601c83611d84565b915061279582612754565b602082019050919050565b600060208201905081810360008301526127b98161277d565b9050919050565b7f546f74616c20737570706c79206d75737420626520706f736974697665000000600082015250565b60006127f6601d83611d84565b9150612801826127c0565b602082019050919050565b60006020820190508181036000830152612825816127e9565b9050919050565b600061283782611cfb565b91507fffffffffffffffffffffffffffffffffffffffffffffffffffffffffffffffff8203612869576128686124d5565b5b600182019050919050565b60008190508160005260206000209050919050565b60006020601f8301049050919050565b600082821b905092915050565b6000600883026128d67fffffffffffffffffffffffffffffffffffffffffffffffffffffffffffffffff82612899565b6128e08683612899565b95508019841693508086168417925050509392505050565b6000819050919050565b600061291d61291861291384611cfb565b6128f8565b611cfb565b9050919050565b6000819050919050565b61293783612902565b61294b61294382612924565b8484546128a6565b825550505050565b600090565b612960612953565b61296b81848461292e565b505050565b5b8181101561298f57612984600082612958565b600181019050612971565b5050565b601f8211156129d4576129a581612874565b6129ae84612889565b810160208510156129bd578190505b6129d16129c985612889565b830182612970565b50505b505050565b600082821c905092915050565b60006129f7600019846008026129d9565b1980831691505092915050565b6000612a1083836129e6565b9150826002028217905092915050565b612a2982611d79565b67ffffffffffffffff811115612a4257612a41611f1f565b5b612a4c82546124a4565b612a57828285612993565b600060209050601f831160018114612a8a5760008415612a78578287015190505b612a828582612a04565b865550612aea565b601f198416612a9886612874565b60005b82811015612ac057848901518255600182019150602085019450602081019050612a9b565b86831015612add5784890151612ad9601f8916826129e6565b8355505b6001600288020188555050505b505050505050565b60006080820190508181036000830152612b0c8187611dd0565b9050612b1b6020830186611e39565b612b286040830185611e39565b612b356060830184611e7a565b95945050505050565b7f496e76616c696420726563697069656e74000000000000000000000000000000600082015250565b6000612b74601183611d84565b9150612b7f82612b3e565b602082019050919050565b60006020820190508181036000830152612ba381612b67565b9050919050565b7f43616e6e6f74207472616e7366657220746f2073656c66000000000000000000600082015250565b6000612be0601783611d84565b9150612beb82612baa565b602082019050919050565b60006020820190508181036000830152612c0f81612bd3565b9050919050565b7f4576656e742068617320656e6465640000000000000000000000000000000000600082015250565b6000612c4c600f83611d84565b9150612c5782612c16565b602082019050919050565b60006020820190508181036000830152612c7b81612c3f565b9050919050565b7f4576656e7420646f6573206e6f74206578697374000000000000000000000000600082015250565b6000612cb8601483611d84565b9150612cc382612c82565b602082019050919050565b60006020820190508181036000830152612ce781612cab565b9050919050565b7f4e6f207469636b65747320617661696c61626c65000000000000000000000000600082015250565b6000612d24601483611d84565b9150612d2f82612cee565b602082019050919050565b60006020820190508181036000830152612d5381612d17565b9050919050565b7f496e73756666696369656e74207061796d656e74000000000000000000000000600082015250565b6000612d90601483611d84565b9150612d9b82612d5a565b602082019050919050565b60006020820190508181036000830152612dbf81612d83565b9050919050565b7f416c726561647920686173207469636b65740000000000000000000000000000600082015250565b6000612dfc601283611d84565b9150612e0782612dc6565b602082019050919050565b60006020820190508181036000830152612e2b81612def565b9050919050565b6000612e3d82611cfb565b915060008203612e5057612e4f6124d5565b5b600182039050919050565b6000612e6682611cfb565b9150612e7183611cfb565b9250828203905081811115612e8957612e886124d5565b5b92915050565b6000604082019050612ea46000830185611e7a565b612eb16020830184611e39565b939250505056fea2646970667358221220703d9259b7673ec1ecdb8bfbb773abcd6c79705ec05adfd1661a45c68b42855f64736f6c63430008180033",
  "linkReferences": {},
  "deployedLinkReferences": {}
}